8=FIX.4.2|9=73|35=A|34=1|49=CLIENT|52=20190826-13:29:04.880|56=SERVER|98=0|108=30|141=Y|10=208|
8=FIX.4.2|9=73|35=A|34=1|49=SERVER|52=20190826-13:29:05.073|56=CLIENT|98=0|108=30|141=Y|10=203|
8=FIX.4.2|9=109|35=D|34=2|49=CLIENT|52=20190826-13:29:05.884|56=SERVER|11=342|21=1|40=1|54=1|55=YRD|60=20190826-21:29:05.882|10=244|
8=FIX.4.2|9=55|35=0|34=2|49=SERVER|52=20190826-13:29:35.917|56=CLIENT|10=127|
8=FIX.4.2|9=55|35=0|34=3|49=CLIENT|52=20190826-13:29:35.925|56=SERVER|10=127|
8=FIX.4.2|9=55|35=0|34=3|49=SERVER|52=20190826-13:29:35.930|56=CLIENT|10=123|
